:4000000000100020110000007D0900007D09000080B500AF00F0BCFC80B500AF184B184A12688021C9020A431A60302001F0E6F8144B154A1A60154B11221A60144B10229C
:400040001A60144B30221A60134B20221A60134B802212061A600A4B8022D2021A60104B104A1A60104B114A1A60114B0F4A1A60104B114A1A60114B00221A60BD4680BDF4
:4000800000010B4004010B4006000080080202400C020240200202402402024008010B40000002401D000080400002402F0000808000024004000240A00100800C020B40D0
:4000C00080B582B000AF72B6504B01221A70FB1D00221A7023E0FB1D1A78131C5B009B185B004B4A9B183B603B681A78597809020A43997809040A43DB781B061343191CC6
:400100003B681A795B791B0213439BB2081C191C00F0BCFCFB1D1A78FB1D01321A70FB1D1B78012BD7D93B4A3B4B101C191C00F0BDFC3A4BC02292041A60394B394A1A60E1
:40014000394B3A4A1A603A4B99221A60394B992212041A60384B802292051A60374B992212041A60364B992212041A60354BD02212051A60344B992212041A60334B012237
:400180001A60334B02221A60324A324B1B78DBB202210B43DBB213702F4A2F4B1B78DBB23C218B43DBB214210B43DBB21370294A284B1B78DBB216210B43DBB21370274BA4
:4001C000C0221A60264B274A1A60274B274A1A60274B70221A60274BDB2252031A60264B03221A60254B264A1A60264B02221A60254B31221A60254B02221A60FFF70CFF69
:4002000000F094FCBD4602B080BDC0461C700F40C8260000D4260000F82600000000014008000140000033030C000140EEEE00001000014000500F4008500F4010500F4036
:4002400020500F4028500F4030500F402000004000800F4000700F4001700F400000044008000440336C5B000801044033001800000204400802044000030440080304402F
:40028000A41DC70000040440080404401804044010B5064C2378002B07D1054B002B02D0044800E000BF0123237010BD48010020000000002426000008B5084B002B03D08C
:4002C0000748084900E000BF07480368002B00D108BD064B002BFBD09847F9E700000000242600004C010020C80000200000000080B582B000AF78600A1CFB1C1A70FB1CD3
:400300001B78181C01F088F9BD4602B080BDC04680B584B000AF021CBB1D1A80BB1D00229B5E002B05DB0E23FB18BA1D12881A8005E0BB1D1A880E23FB1852421A800E2395
:40034000FB181B88181CBD4604B080BD80B500AF002001F01FFC002001F042FC002001F065FC002001F086FCBD4680BD80B582B000AF78607B681B695A1C7B681A61BD46CF
:4003800002B080BD80B582B000AF78607B68DB685A1C7B68DA60002001F048FC012001F069FCFA235B00181C01F0CAF8BD4602B080BDC04680B582B000AF78607B68DB6870
:4003C0005A1E7B68DA60002001F054FC012001F02DFCFA235B00181C01F0B2F8BD4602B080BDC04680B500AF002001F043FC002001F01CFC322001F0A3F8BD4680BDC0460C
:4004000080B582B000AF00237B60012001F066FC0A2001F0B9F8002001F060FCC04601F04FFC031EFBD00CE07B6801337B60124B1B687A689A4204DD012001F075FC0023CA
:4004400015E001F03DFC031E012BEDD00B4A7B68101C191C01F084FB074B1B687A689A4204DC002001F060FC012300E00023181CBD4602B080BDC046CC00002028260000DD
:4004800080B582B000AF00237B60012001F02CFD0A2001F079F8002001F026FDC04601F049FD031EFBD00CE07B6801337B60124B1B687A689A4204DD012001F049FD00232C
:4004C00015E001F037FD031E012BEDD00B4A7B68101C191C01F044FB074B1B687A689A4204DC002001F034FD012300E00023181CBD4602B080BDC046CC00002028260000CD
:4005000080B582B000AF78603960002001F068FB012001F03FFB3B68181CFFF727FF7B68002B04DD3B68181CFFF72CFF06E07B68002B03DA3B68181CFFF73CFFBD4602B00C
:4005400080BDC04680B582B000AF78607B68DA687B681B690C49081C111C1A1C01F000FB7B68181CFFF702FFFFF73CFF7B681A697B689B689A4201DB012300E00023181C58
:40058000BD4602B080BDC0463C26000080B582B000AF78607B68181CFFF7E8FEFFF722FFFFF72EFF031E05D07B68181CFFF702FF00230AE0FFF764FF031E05D07B68181C4F
:4005C000FFF7E0FE002300E00123181CBD4602B080BDC04690B589B000AF78603960002001F07CFB1D20002100F04EFB031C3B60002000F0B3FC031C3B601D20FF2100F097
:40060000CBFB031C3B60002000F00EFD021C1F23FB181A70002000F007FD021C1E23FB181A70002000F000FD021C1D23FB181A70002000F0F9FC021C1C23FB181A700020EB
:4006400000F0F2FC021C1B23FB181A70002000F0EBFC021C1A23FB181A70FF2000F0E4FC021C1923FB181A7000F01AFC031C3B601E23FB181B789BB21B029AB21D23FB181E
:400680001B789BB2D3189BB29AB21623FB1812B212111A801C23FB181B789BB21B029AB21B23FB181B789BB2D3189BB29AB21423FB1812B212111A801A23FB181B789BB2BE
:4006C0001B029AB21923FB181B789BB2D3189BB29AB21223FB1812B212111A801023FC181623FB1800229B5E181CFFF711FE031C23800E23FC181423FB1800229B5E181C8E
:40070000FFF706FE031C23800C23FC181223FB1800229B5E181CFFF7FBFD031C238001F0AFFB021E1E4B9A420FD81023FB181B88181C0A2101F0B0FE031C9BB2184A9446FD
:400740006344181C01F08EFB0EE01023FB181B88181C0A2101F0A0FE031C9BB21A1C104B9B1A181C01F07EFB1623FB1800229B5E1B119BB21BB20B4A101C191C01F0F0F9D2
:400780001423FB1800229B5E1B119BB21BB2064A101C191C01F0E4F9BD4609B090BDC04650460000502600006026000080B588B000AF62B601F028FBFA2000F0C1FE00F06D
:4007C0000FFF674B0020191C01F0B8F900F0CAF91D20002100F058FA031CFB610B2000F0BDFB031CFB61002000F0B8FB031CFB6100F056FB031CFB611D20002100F044FAA0
:40080000031CFB612A2000F0A9FB031CFB61012000F0A4FB031CFB6100F042FB031CFB611D20002100F030FA031CFB610B2000F095FB031CFB61012000F090FB031CFB61E1
:4008400000F02EFB031CFB613B1D00221A703B1D00225A603B1D00229A603B1D0022DA603B1D00221A613B1D3E4A5A613B1D00225A603B1D32229A603B1D5A683B1D101C7C
:40088000191CFFF73DFE3B1D5A683B1D9B683649081C111C1A1C01F063F9344B181C01F05FF9FFF7ADFD031E07D03B1D02221A702F4B181C01F054F906E03B1D01221A7099
:4008C0002C4B181C01F04CF93BE03B1D1B78012B23D1FFF795FD031E03D1FFF7D1FD031E07D03B1D02221A70214B181C01F038F912E03A1DFB69101C191CFFF76BFE3B1D2B
:40090000181CFFF71FFE031E1BD03B1D03221A70194B181C01F024F913E03B1D1B78022B0FD13B1D181CFFF731FE031E06D03B1D01221A700F4B181C01F012F91E2000F067
:40094000FFFD3B1D1B78032BBFD1FFF7FFFCFA235B00181C00F0F4FDBD4608B080BDC046F102000000CA9A3B702600008426000094260000A8260000B826000080B500AF3A
:4009800001F01CFE031C1B680C2B00D1FEE7FEE780B586B000AF224B7B61224B3B61204B7B6135E03B691B68FB603B695B68BB603B699B683B6000237B600CE0FB681A68DB
:4009C000BB681A60BB680433BB60FB680433FB607B6804337B607A683B689A42EED13B69DB683B6000237B6008E0BB6800221A60BB680433BB607B6804337B607A683B68C5
:400A00009A42F2D13B6910333B617B69013B7B617B69002BC6D101F0D7FDFFF7C7FEFEE7010000001828000080B582B000AF00237B600FE07B68032B04D8104B7A6892008D
:400A4000D35800E00E4B0F4A796889008B507B6801337B607B682F2BECD9FFF731FB0A4B00221A608023DB058022D205126801210A431A60BD4602B080BDC0460000000016
:400A80007D09000000000020C000002080B582B000AF786039607A683B68101C00211A1C01F0B8FDBD4602B080BDC04680B586B000AF7860396000233B6100237B612FE02B
:400AC0007B699B007A68D3181B68BB600F23FB18BA681A70BB68FF229343BB6018E03B695B003A68D3181B781A1CBB68D318191C3B695B003A68D3185B780B703B690133A4
:400B00003B610F23FB181A780F23FB18013A1A700F23FB181B78002BE1D17B6901337B617B69082BCCD9BD4606B080BD80B500AFBD4680BD80B500AF00F032F8BD4680BD7B
:400B400080B500AF064B064A1268802109060A431A6000F019F800F01FF8BD4680BDC0460000074080B500AF064B1B78002B04D1FFF7E0FF034B01221A70FFF7E1FFBD46F9
:400B800080BDC0466401002080B500AF0B2000F0A5FCBD4680BDC04680B500AFBD4680BD80B500AF234B234A12680C210A431A60214B00221A60214B214A1A60214B224A05
:400BC0001A60224B00221A60214B00221A60214B1D4A1A60204B00221A600B2000F092FC0B20032100F026FC1C4B0B20191C00F0FBFB1B4B00221A601A4B00221A601A4BF7
:400C000000221A60194B1422FF321A60184B00221A60184B00221A60174B10221A70174B00221A80164B00221A60164B00221A60BD4680BD700007400000074060000740BA
:400C400077080080000307400701008004030740100307400002074004020740C91F0000C80E0740880E0740480F0740080F0740C80F0740880F074079010020820100204E
:400C8000940100209001002080B584B000AF786039600023FB600423BB60384B1B78DBB2102B66D1364B1B680122134002D00823BB605EE00B2000F025FC7B685B00FF2205
:400CC00013407B603B68002B03D12C4B24221A7006E02A4B25221A707B68012213437B60284B7A681A60284B284A1A60284B02221A60C046244B1A680823FF331340F9D0CB
:400D0000214B1B680422134002D00023BB601CE01D4B1B680222134002D00223BB6014E0194B1B680122134007D0144B10221A700123BB600123FB6007E0104B10221A70CC
:400D400080235B00BB600123FB600F4B0822FF321A60FB68002B0CD00E4B0E4A1268520052081A600B4B0B4A1268802109060A431A60BB68181CBD4604B080BD7901002070
:400D80006400074040020740000F074017030000680007400000074080B584B000AF786039600023FB600423BB60374B1B78DBB220221340DBB2002B60D07B685B00FF22D2
:400DC00013407B603B68002B03D12F4B24221A7006E02D4B25221A707B68012213437B602A4B2B4A1A6000F073F9C046294B1B6801221340FAD1284B7A681A60C046234B32
:400E00001A680823FF331340F9D0204B1B680422134002D00023BB601CE01C4B1B680222134002D00223BB6014E0184B1B680122134007D0144B10221A700123BB6001232C
:400E4000FB6007E0104B10221A7080235B00BB600123FB600D4B0822FF321A60FB68002B0CD00E4B0D4A1268520052081A600B4B0A4A1268802109060A431A60BB68181CA8
:400E8000BD4604B080BDC04679010020000F07401703000068000740400207400000074080B582B000AF00237B6004233B60264B1B78DBB220221340DBB2002B3ED0234B7F
:400EC000234A126820210A4001D0182200E010221A60C0461F4B1A681223FF331340F9D01C4B1B681022134002D000233B600EE0184B1B680122134004D001233B60012374
:400F00007B6004E080235B003B6001237B60114B1222FF321A600C4B10221A707B68002B0CD00D4B0C4A1268520052081A600A4B094A1268802109060A431A603B68181C64
:400F4000BD4602B080BDC046790100206800074064000740000F07400000074080B584B000AF78600023FB600423BB602A4B1B78DBB220221340DBB2002B48D0274B7A68EA
:400F80001A60C046264B1A680823FF331340F9D0234B1B680422134005D01F4B60221A700023BB601FE01E4B1B680222134005D0194B60221A700223BB6014E0184B1B6891
:400FC0000122134007D0144B10221A700123BB600123FB6007E0104B10221A7080235B00BB600123FB600E4B0822FF321A60FB68002B0CD00B4B0B4A1268520052081A6052
:40100000084B084A1268802109060A431A60BB68181CBD4604B080BD7901002040020740000F07400000074080B584B000AF786001235B42FB601F4B1B78DBB220221340E4
:40104000DBB2002B31D0C0461B4B1B680422134005D11A4B1A680223FF331340F4D0164B1B680422134010D0154B1B68FB60124B04221A607B68002B03D1124B04221A60CD
:4010800013E00C4B60221A700FE00C4B0E4A1A600E4B0E4A1268520052081A600B4B0B4A1268802109060A431A60FB68181CBD4604B080BD79010020C00F0740000F074044
:4010C0004003074068000740170300000000074080B582B000AF254B1B687B60C04600F07FF8031EFBD0002000F048F8204B204A12680F218A431A601E4B1E4A1268520066
:4011000052081A607B682022134010D0002000F035F80A2000F038FA012000F02FF8C04600F050F8031EFBD00A2000F02DFA002000F024F80A2000F027FA0F4B01221A60F9
:401140000C4B0C4A1268802109060A431A60084B074A12680F218A430E210A431A60012000F00CF8BD4602B080BDC046640007400C000140000007406800074080B584B05C
:4011800000AF021CFB1D1A700D4B1B68DAB20F23FB1801218A431A70FB1D1B7801221340D9B20F23FB180F22BA1812780A431A70034B0F22BA1812781A60BD4604B080BDFD
:4011C0000003044080B500AF044B1B68DBB201221340DBB2181CBD4680BDC0460403044080B500AF044B1B68022213405B08DBB2181CBD4680BDC0460403044090B585B041
:4012000000AF78600C23FC1800F0D4FE031C23707B68022B00D8B4E07B68302B00D9B0E05E4B1B78DBB21A1E7B689A420AD35C4A0F23FB1812781A705A4A0E23FB1812783F
:401240001A703FE0584B1B78DBB21A1E7B689A420AD3564A0F23FB1812781A70544A0E23FB1812781A702DE0524B1B78DBB21A1E7B689A420AD3504A0F23FB1812781A70AE
:401280004E4A0E23FB1812781A701BE04C4B1B78DBB21A1E7B689A420AD34A4A0F23FB1812781A70484A0E23FB1812781A7009E0464A0F23FB1812781A70454A0E23FB183C
:4012C00012781A707B68DA1E0B23FB1841498A5C1A700B23FB181B782F2B0DD97B682A2B0AD93D4B19221A60052000F059FE0D23FB1819221A7007E0374B1B68DAB20D233C
:40130000FB183F210A401A700B23FA180D23FB1812781B789A4208D22F4B7A68033A2D498A5C1A60052000F03BFE7B68284A9A180A23FB1812781A70284B0A22BA181278FD
:401340001A60274B0F22BA1812781A60254B0E22BA1812781A60052000F016F90B23FA180D23FB1812781B789A4209D91A4B7A68033A18498A5C1A60052000F011FE03E036
:4013800002E0002000F0D2F80C23FB181B78181C00F014FEBD4605B090BDC046C0F1FF0FC1F1FF0FC2F1FF0FC3F1FF0FC4F1FF0FC5F1FF0FC6F1FF0FC7F1FF0FC8F1FF0F80
:4013C000C9F1FF0FCAF1FF0FCBF1FF0FCCF1FF0FCDF1FF0FC02700002CFF0B4028FF0B401CFF0B4020FF0B4080B584B000AF021C3960FB1D1A7080239B05FB60FB1D1B78A2
:401400001F2B02D9002000F091F8FB1D1B7810339B00FA68D3181B68BB60FB1D1B7810339B00FA68D3183A681A60BB68181CBD4604B080BD90B587B000AF021CFB1D1A7052
:40144000BB1D0A1C1A70BB1D1B78032B02D9002000F06CF8FB1D1B781F2B02D9002000F065F8FB1D1B7803221340DB0006337B611323FC1800F09EFD031C2370FB1D1B787A
:401480009B08DBB29B00144A944663441B68FB607B6903229A40131CDA43FB681340FB60BB1D1A787B699A40131CFA681343FB60FB1D1B789B08DBB29B00074A94466344B2
:4014C000FA681A601323FB181B78181C00F076FDBD4607B090BDC04600E400E080B582B000AF021CFB1D1A70054BFA1D12781F210A40012191400A1C1A60BD4602B080BDF6
:4015000000E100E080B582B000AF021CFB1D1A70054BFA1D12781F210A40012191400A1C1A60BD4602B080BD80E100E080B582B000AF021CFB1D1A7001BEBD4602B080BD4C
:4015400080B582B000AF786009E00C4B1B68181C00F026FD7B680A4A944663447B607A6880231B029A42F0D8064B1B687A685343181C00F015FDBD4602B080BDDC0000202A
:401580000080FFFFD400002080B582B000AF021CBB1D1A80BB1D1B88044A12785343181C00F0FEFCBD4602B080BDC046D800002080B500AF00F046F8BD4680BD80B500AFE6
:4015C000064B064A1268802109060A431A6000F019F800F01BF8BD4680BDC0460000064080B500AF064B1B78002B04D1FFF7E0FF034B01221A70FFF7E1FFBD4680BDC04615
:401600006C01002080B500AFBD4680BD80B500AF00F072F8BD4680BD80B582B000AF7860C046064B1B680F221340082BF9D0044B7A681A60BD4602B080BDC0460802064040
:401640004002064080B500AF194B1A4A1A601A4B00221A60194B01221A60194B194A1A60194B07221A60194B00221A60184B01221A60184B134A1A60174B00221A60174BD8
:4016800000221A60164B00221A60164B00221A60154B00221A60154B00221A60144B00221A60134B1B689AB2124B1A80BD4680BD000006400B0000024000064048000640D6
:4016C00000030640070000800403064010030640440006400002064004020640880E0640C80E0640480F0640080F0640C80F0640880F06406E01002080B500AF064B064A56
:401700001268F0218A4390210A431A60034B044A12881A60BD4680BD10000140880F06406E01002080B588B000AFF860B9607A603B600023FB610123BB6103E0BB69BA6842
:401740005343BB61F868B96900F0A6FE031C1A1EBB689A42F2D231E0F868B96900F09CFE031C7B61FB68181CB96900F01BFF0B1CFB60B869B96800F08FFE031CBB61FB69CC
:40178000002B05D17B69002B02DCBB69002B15D13A68531C3B607B69092B06DD7B68002B01D0372302E0572300E030237969C9B25B18DBB21370FB690133FB61BB69002B74
:4017C000CAD13B6800221A70BD4608B080BDC04680B582B000AF786039607B68002B07DA7B685B427B603B685A1C3A602D221A707A683B68101C0A210022FFF793FFBD461B
:4018000002B080BD80B582B000AF021CFB1D1A70FB1D1B782F2B07D9FB1D1B78392B03D8FB1D1B78303B19E0FB1D1B78602B07D9FB1D1B78662B03D8FB1D1B78573B0DE0AE
:40184000FB1D1B78402B07D9FB1D1B78462B03D8FB1D1B78373B01E001235B42181CBD4602B080BD80B588B000AFB9607A603B600F23FB18021C1A70BB681B68FB610023DA
:40188000BB6111E07A697B689A4200DD17E0BB697A685A437B69D318BB61FB695A1CFA610F22BA181B7813700F23FB181B78181CFFF7A8FF031C7B617B69002BE2DABB6837
:4018C000FA691A603B68BA691A600F23FB181B78181CBD4608B080BD80B586B000AFF860B9607A601A1CFB1C1A70FB1C1B78002B01D0302200E020221323FB181A703B6AF9
:401900007B6102E07B68013B7B607B695A1C7A611B78002B02D07B68002BF3DC07E0F9681323FB181A78BB68081C111C98477B685A1E7A60002BF2DC07E0F9681223FB1819
:401940001A78BB68081C111C98473B6A5A1C3A621222BA181B7813701223FB181B78002BEBD1BD4606B080BD90B58DB002AFF860B9607A603B60CFE02723FB181B78252BEF
:4019800008D0F9682723FB181A78BB68081C111C9847C1E02623FB1800221A7000237B617B685A1C7A602722BA181B7813702723FB181B78302B0AD17B685A1C7A602722FE
:4019C000BA181B7813702623FB1801221A702723FB181B782F2B13D92723FB181B78392B0ED82723FC182723FB1819783A1D1423FB18081C111C0A22FFF734FF031C237041
:401A00002723FB181B78632B63D008DC252B00D179E0582B3DD0002B00D18BE07BE0732B62D002DC642B1DD075E0752B02D0782B2FD070E03B681A1D3A601A681823FB181E
:401A4000101C0A210022FFF76DFE7A69F868B9682623FB181C781823FB180093231CFFF73BFF59E03B681A1D3A601A681823FB18101C191CFFF7ACFE7A69F868B9682623BD
:401A8000FB181C781823FB180093231CFFF724FF42E03B681A1D3A601A682723FB181B78583B59424B41DBB21C1C1823FB18101C1021221CFFF736FE7A69F868B9682623FF
:401AC000FB181C781823FB180093231CFFF704FF22E03B681A1D3A601B68DAB2F968BB68081C111C984717E07C693B681A1D3A601B68F968BA680093081C111C221C002352
:401B0000FFF7EAFE08E0F9682723FB181A78BB68081C111C9847C0467B685A1C7A602722BA181B7813702723FB181B78002B00D022E700E0C046BD460BB090BD80B582B086
:401B400000AF78603960044B3A681A60034B7A681A60BD4602B080BD70010020740100200FB480B582B000AF1423FB187B60074B1868074B19683A697B68FFF7F5FEBD4603
:401B800002B080BC08BC04B01847C046740100207001002080B584B000AF021CFB1D1A700E4B1B68DAB20F23FB1810218A431A70FB1D1B781B01DBB210221340D9B20F2391
:401BC000FB180F22BA1812780A431A70034B0F22BA1812781A60BD4604B080BD0000044080B584B000AF021CFB1D1A700E4B1B68DAB20F23FB1820218A431A70FB1D1B7819
:401C00005B01DBB220221340D9B20F23FB180F22BA1812780A431A70034B0F22BA1812781A60BD4604B080BD0000044080B584B000AF021CFB1D1A700D4B1B68DAB20F23F4
:401C4000FB187F210A401A70FB1D1B78DB01D9B20F23FB180F22BA1812780A431A70044B0F22BA1812781A60BD4604B080BDC0460003044080B584B000AF021CFB1D1A70B3
:401C80000E4B1B68DAB20F23FB1820218A431A70FB1D1B785B01DBB220221340D9B20F23FB180F22BA1812780A431A70034B0F22BA1812781A60BD4604B080BD00030440F2
:401CC00080B500AF044B1B68DBB201221340DBB2181CBD4680BDC0460400044080B584B000AF021CFB1D1A700E4B1B68DAB20F23FB1802218A431A70FB1D1B78DB18DBB2B2
:401D000002221340D9B20F23FB180F22BA1812780A431A70034B0F22BA1812781A60BD4604B080BD0000044080B584B000AF021CFB1D1A700E4B1B68DAB20F23FB18402185
:401D40008A431A70FB1D1B789B01DBB240221340D9B20F23FB180F22BA1812780A431A70034B0F22BA1812781A60BD4604B080BD0001044080B500AF104B8022D2041A6090
:401D80000E4B0E4A12681A60002000F04FF80B4B0A4A12681A600A4B0C221A60012000F097F8084B31221A60074B181C00F04CF8064B181C00F056F8BD4680BD4001054089
:401DC0006401054068010540409C00005046000090B583B000AFFC1D00F0ECF8031C2370084B084A126802210A431A60FB1D1B78181C00F0E3F80220182100F04DF8BD460D
:401E000003B090BD0000054080B500AF064B1B78002B04D1FFF7AEFF034B01221A70FFF7D7FFBD4680BDC0467801002080B582B000AF7860034B7A681204120C1A60BD467D
:401E400002B080BD4801054080B582B000AF7860034B7A681204120C1A60BD4602B080BD5401054080B582B000AF7860034B7A681204120C1A60BD4602B080BD4C0105403D
:401E800080B500AF034B1B681B041B0C181CBD4680BDC0464C01054090B585B000AF786039600F23FC1800F085F8031C2370074B3A68796891400A1C1A600F23FB181B78FE
:401EC000181C00F07BF8BD4605B090BD0800054080B582B000AF7860024B7A681A60BD4602B080BD7801054080B584B000AF021CFB1D1A700E4B1B68DAB20F23FB1802210A
:401F00008A431A70FB1D1B78DB18DBB202221340D9B20F23FB180F22BA1812780A431A70034B0F22BA1812781A60BD4604B080BD0001044080B500AF044B1B68DBB2012280
:401F40001340DBB2181CBD4680BDC0460401044080B584B000AF021CFB1D1A700E4B1B68DAB20F23FB1808218A431A70FB1D1B78DB00DBB208221340D9B20F23FB180F2228
:401F8000BA1812780A431A70034B0F22BA1812781A60BD4604B080BD00000440000000000230800804D0C0460138FDD1C046C046C0467047EFF3108072B6704780F31088A1
:401FC0007047C046C046C04680B582B000AF00233B60BE4B1B68002B02D0BC4B1B689847BB4B1B680122134002D0BA4B00221A60B94B1B78DBB220221340DBB2002B38D067
:40200000B64B1A6880235B0013400AD0B44B1B889BB2C022920013439AB2B14B1A8001233B60AE4B1B68012213400AD0AC4B1B889BB29022920013439AB2A94B1A8001234D
:402040003B603B68002B14D0A34B1B78DBB201221340DBB2002B01D0012300E00223A04A128892B213439AB29D4B1A809A4B00221A70994B1B78DBB220221340DBB2002B0F
:4020800000D1A2E1954B1B681022134018D0954B10221A60904B1B78DBB201221340DBB2002B01D0012300E002238D4A128892B213439AB28A4B1A80874B10221A70BAE15E
:4020C000854B1B78DBB208221340DBB2002B29D0824B1B68022213400ED0824B02221A607F4B1B889BB28822920013439AB27C4B1A8001233B6015E0774B1B78DBB2012200
:402100001340DBB2002B03D0734B25221A7009E0714B24221A70744B1B68002B02D0734B10221A606C4B1B78DBB204221340DBB2002B00D111E1684B1B78DBB20122134000
:40214000DBB2002B5BD06A4B1B680822134033D0684B1A68684B1B680F211940674B1B68CB18D31A7B607B68082B02D908237B600CE07B68002B09D1614B614A12686149AA
:402180000A401A6008237B6001233B6010E05E4B1A685A4B1B68D2185C4B1B68DBB21370564B1B685A1C554B1A607B68013B7B607B68002BEBD11EE04D4B1B680422134025
:4021C00019D0514B1A684D4B1B68D2184F4B1B68DBB21370494B1B685A1C484B1A60474B1A68444B1B689A4203D2494B04221A6001E001233B60474B474A1A60ADE0374BB5
:402200001B680222134032D0364B02221A60434B1B680F221A40414B196880231B020B4001D0012300E00023D2183D4B1B689A1A3B4B1A603A4B1A683A4B1A60284B1B8812
:402240009BB28422920013439AB2254B1A80364B354A1268802149020A431A60324B324A126832490A401A6001233B6075E0304B1B681022134065D015E0294B1A681A4B32
:402280001B689A420ED22B4A2B4B1968244B1B68CB181B78DBB21360214B1B685A1C204B1A6000E005E01D4B1B680F221340082BE3D11B4B1A680C4B1B689A4202D10B4BDF
:4022C00040221A601D4B1E4A1A6046E0680100208C0E0740880E0740790100200C0F074082010020000F074098010020880F0740CC0F07408C0100200803074094010020E9
:4023000060000740FFFEFFFF840100204003074068000740C00F0740ED0F0000080207407C0100209001002004020740FFFFFEFF8C0F07404002074088010020800F07403A
:40234000F30700003D4B1B684022134005D03C4B1A683C4B1A6001233B603B68002B6AD0394B394A126839490A401A60384B00221A60384B00221A60374B1B78DBB2022232
:402380001340DBB2002B15D0344B1B78DBB201221340DBB2002B01D0092300E00A23304A128892B213439AB22D4B1A802B4B60221A7040E02B4B2C4A126820210A4001D0E6
:4023C000182200E010221A6035E0244B1B78DBB210221340DBB2002B2DD1244B234A1268520052081A601D4B10221A70164B164A12681F490A401A60134B134A12681D4996
:402400000A401A60124B00221A60124B00221A60194B1A4A1A601A4B1A4A1A601A4B1B4A1A601B4B1B4A1A60104B104A1268802109060A431A60BD4602B080BD8C0F07405E
:402440007C0100209001002060000740FFFEFFFFC80F0740880F0740800100207901002082010020680007406400074000000740FF5FFFFFFFFCFFFF800F0740ED0F0000CA
:40248000C00F0740F3070000400F0740FF0F0000000F074017030000002243088B4274D303098B425FD3030A8B4244D3030B8B4228D3030C8B420DD3FF22090212BA030CE2
:4024C0008B4202D31212090265D0030B8B4219D300E0090AC30B8B4201D3CB03C01A5241830B8B4201D38B03C01A5241430B8B4201D34B03C01A5241030B8B4201D30B03E1
:40250000C01A5241C30A8B4201D3CB02C01A5241830A8B4201D38B02C01A5241430A8B4201D34B02C01A5241030A8B4201D30B02C01A5241CDD2C3098B4201D3CB01C01ADC
:40254000524183098B4201D38B01C01A524143098B4201D34B01C01A524103098B4201D30B01C01A5241C3088B4201D3CB00C01A524183088B4201D38B00C01A52414308C3
:402580008B4201D34B00C01A5241411A00D20146524110467047FFE701B5002000F00CF802BDC0460029F7D003B5FFF775FF0EBC4243891A1847C0467047C046014B186847
:4025C0007047C046440100200E4B70B500251E1C0D4CE41AA410A54204D0AB00F35898470135F8E700F006F9084B00251E1C084CE41AA410A54204D0AB00F35898470135BF
:40260000F8E770BD00280000002800000028000008280000031C8218934202D019700133FAE7704700000000736F6E61725F64697374203A2025640A000000006375727232
:40264000203A202825642C202564290A00000000616363656C5F58203A2025640A000000616363656C5F59203A2025640A00000064657374203A202825642C202564290ACB
:40268000000000007374617465203A20494E49540A0000007374617465203A2041564F4944414E43450A00007374617465203A204E4F524D414C0A007374617465203A2009
:4026C000474F414C0A00000000300F40000400400F40000401000F4004300F4005310F4033320F4015330F4006400F4006420F4003430F4002600F40830DB802BE01D8049D
:40270000DF011C8088408F10E210E620404549FF4AFF4BFF4F0150185A045D095F016040624064406540668068806A806C806E808E019201B001B401BE01C054C5ECC72072
:40274000C823C9FFCAFFCBFFCD83CE03CF01D018D280D401D804DA04DB04DC09DD99DF01E040E240E440E540E680E880EA80EC80EE8002020B401A401B1041014680490578
:402780004B404E025101520259055A4072807340A710C001C208D081D218D60B62026F088A028F08D840DA80661067028A10D601D801E4041F019702C60402011101000084
:4027C000030405060708090A0B0C0E0F101112131415161718191B1C1D1E1F2021222325262728292A2B2E2F303132333435000043000000F8B5C046F8BC08BC9E467047E0
:40280000B9020000290A0000F8B5C046F8BC08BC9E4670479102000028280000C800002080000000580000000000000098080000006CDC0280BB0000300000000000C05DCF
:40284000010000000000000000000000000000000000000000000000000000000000000000000000F027000000000000000000000000000000000000000000000000000040
:40288000000000000000000000000000000000000000000000000000000000000000000000000000E400002000000000000000000000000000000000000000000000000014
:4028C00000000000000000000000000000000000000000000000000000000000000000000000000000000000000000000000000000000000000000000000000000000000D8
:402900000000000000000000000000000000000000000000000000000000000000000000000000000000000000000000000000000000000000000000000000000000000097
:402940000000000000000000000000000000000000000000000000000000000000000000000000000000000000000000000000000000000000000000000000000000000057
:402980000000000000000000000000000000000000000000000000000000000000000000000000000000000000000000000000000000000000000000000000000000000017
:0200000490303A
:020000004E7040
:0200000490402A
:200000000000000000000000000000000000000000000000000000000000000000000000E0
:0200000490501A
:0C000000000204C81193110104D5600334
:0200000490600A
:0100000001FE
:00000001FF